:020000040000FA
:1000000083168701F03086000730810083120310C9
:10001000D0018701EB23C82487019923A323C501BD
:10002000C601DF01E401DD01DE0100308700DB24D1
:10003000C2240C308700DB24C2240E30C000C00B69
:100040002E2803140D308700DB24C22405308700DE
:10005000DB24C2242922031C312822288723E124FF
:100060001F28C501C601C824AD230C308700DB243E
:10007000C22400308700DB24C224C323C501E1244D
:1000800003100D308700DB24C22400308700DB24FE
:10009000C22429224508143A031953284608153A60
:1000A00003195A294928C82408308700DB24C224B0
:1000B00004308700DB24C22490230C308700DB242B
:1000C000C22405308700DB24C22400308700DB24F3
:1000D000C2240F308700DB24C2240311D901D001D0
:1000E000D101D201D301D401D501DC01DD01DE0152
:1000F0000311FF30DF0087014621E501B6204621CC
:10010000E501ED20292214216508E006031D7E2863
:1001100003114621E501C2204621E501ED202922F7
:1001200014216508E106031D8B2803114621E50112
:10013000CE204621E501ED20292214216508E206A2
:10014000031D982803114621E501DA204621E50127
:10015000ED20292214216508E306031DA528462168
:10016000E5016408103A031D21295F290317831252
:1001700001308D0083168C130C1483120C080313AA
:10018000E00008000317831202308D0083168C13E1
:100190000C1483120C080313E100080003178312E8
:1001A00003308D0083168C130C1483120C08031378
:1001B000E20008000317831204308D0083168C13AD
:1001C0000C1483120C080313E300080003115D08EC
:1001D000033A0319DE0ADD0A08005E08013A031932
:1001E000F228080000308700DB24C2240C3087008E
:1001F000DB24C224C82408308700DB24C224053055
:100200008700DB24C22476230C308700DB24C22441
:1002100003308700DB24C2247C23E124E124E12491
:10022000E124E124E124092803115008590751076A
:100230005207530754075507560757075807E5074E
:1002400008005121C82408308700DB24C224043070
:100250008700DB24C2246D23E124E124E124E1248E
:10026000E124C824E124E12408308700DB24C224EF
:1002700004308700DB24C2245B23E124E1246423CF
:10028000E1246423E1246423E1240928D901D00175
:10029000D101D201D301D401D501D601D701D801B2
:1002A000080000308700DB24C2240C308700DB24E8
:1002B000C22408001030E400C601C82453281222CA
:1002C0005121C824432300308700DB24C2240F308F
:1002D0008700DB24C22490230C308700DB24C22457
:1002E00005308700DB24C2240311D901D001D101DC
:1002F000D201D301D401D501DC01DD01DE010311FE
:100300000030DF00ED20292214215D08013A031D91
:100310008229AE2103114621E501ED202922142175
:100320005D08023A031D8D29C72103114621E5010D
:10033000ED20292214215D08033A031D9829031199
:10034000E0214621E501ED20292214215D08043A2F
:10035000031DA329F9214621E50109280317831666
:100360008C18B029831201308D00831203136508A5
:1003700003178C0083168C130C158B1355308D00CE
:10038000AA308D008C148B170C1183010800031701
:1003900083168C18C929831202308D00831203132F
:1003A000650803178C0083168C130C158B135530BE
:1003B0008D00AA308D008C148B170C11830108005E
:1003C000031783168C18E229831203308D008312E1
:1003D0000313650803178C0083168C130C158B13FD
:1003E00055308D00AA308D008C148B170C118301B1
:1003F0000800031783168C18FB29831204308D0024
:1004000083120313650803178C0083168C130C15D5
:100410008B1355308D00AA308D008C148B170C1166
:10042000830108008B170C118C18142A83125E307C
:100430008D0000308C0083168C130C158B135530F7
:100440008D00AA308D008C148B170C1183120313AE
:1004500008008701860106143A2287018601861466
:1004600041228701860106154822870186018615EB
:100470004F220800061A5622861A6D22061B832276
:100480000800061A9722861AAB22061BBF22080014
:10049000061AD322861AE722061BFB220800061A38
:1004A0000F23861A2123061B36230800E62014306A
:1004B000C5001730D0000311031012235F08003A63
:1004C00003196322080013308700DB24C224113093
:1004D0008700DB24C224E1240800E6201530C60092
:1004E0001830D100031012235F08003A0319792253
:1004F000080013308700DB24C22412308700DB247D
:10050000C224E1240800E62003101930D20012238F
:100510005F08003A03198D22080013308700DB249E
:10052000C22413308700DB24C224E1240800E62023
:1005300003101A30D30012235F08003A0319A122D6
:10054000080013308700DB24C22414308700DB242A
:10055000C224E1240800E62003101B30D40012233B
:100560005F08003A0319B522080013308700DB2426
:10057000C22415308700DB24C224E1240800E620D1
:1005800003101C30D50012235F08003A0319C9225A
:10059000080013308700DB24C22416308700DB24D8
:1005A000C224E1240800E62003101D30D6001223E7
:1005B0005F08003A0319DD22080013308700DB24AE
:1005C000C22417308700DB24C224E1240800E6207F
:1005D00003101E30D70012235F08003A0319F122DE
:1005E000080013308700DB24C22418308700DB2486
:1005F000C224E1240800E62003101F30D800122393
:100600005F08003A03190523080013308700DB2434
:10061000C22419308700DB24C224E124080003101F
:10062000122308005F08FF3A03191723080012304D
:100630008700DB24C2241A308700DB24C224E12493
:100640000800E62003100311FF30D90012235F08D1
:10065000003A03192C23080013308700DB24C2243E
:1006600010308700DB24C224E12408002130DA00A6
:10067000031012308700DB24C22413308700DB24F0
:10068000C224E1240800442495243B248C2417240C
:1006900012308700DB24C22410308700DB24C22400
:1006A0007A24562444248324292417245F243B24B9
:1006B0009E241724080017242024292432243B24B4
:1006C00044244D245624080012308700DB24C22421
:1006D0001E308700DB24C22408007A2456242924F3
:1006E00029243B247A248324172408007A246824AC
:1006F00017248C243B240800322444247A245624D2
:10070000292429243B247A24832417240800013037
:100710008700DB24C2240C308700DB24C2240800BD
:10072000B92417245F245F24B024562429244D249F
:1007300008000A308700DB24C22400308700DB2455
:10074000C224E52308000D308700DB24C2240D30CD
:100750008700DB24C224D923080013308700DB2460
:10076000C22411308700DB24C22413308700DB242D
:10077000C2241E308700DB24C2241724202429240D
:1007800032242924080013308700DB24C2241230CD
:100790008700DB24C22413308700DB24C2241E30F0
:1007A0008700DB24C22417244D24A72432244424A8
:1007B0000800202432243B2444248C243B24442459
:1007C00032244D2456240310080071245624682432
:1007D000172403100800DB24DB24071203308700F2
:1007E000DB24C22403308700DB24C22403308700CB
:1007F000DB24C22402308700DB24C22402308700BD
:10080000DB24C22408308700DB24C22400308700A8
:10081000DB24C2240C308700DB24C2240030870094
:10082000DB24C22401308700DB24C22408001430FA
:100830008700DB24C22411308700DB24C224080097
:1008400014308700DB24C22412308700DB24C2244A
:10085000080015308700DB24C22412308700DB2417
:10086000C224080014308700DB24C224193087001A
:10087000DB24C224080014308700DB24C224153096
:100880008700DB24C224080014308700DB24C22444
:100890001E308700DB24C224080014308700DB24CC
:1008A000C22414308700DB24C224080014308700DF
:1008B000DB24C2241F308700DB24C224080015304B
:1008C0008700DB24C22413308700DB24C224080005
:1008D00014308700DB24C2241C308700DB24C224B0
:1008E000080014308700DB24C22418308700DB2482
:1008F000C224080014308700DB24C2241330870090
:10090000DB24C224080015308700DB24C224143005
:100910008700DB24C224080015308700DB24C224B2
:1009200016308700DB24C224080015308700DB2442
:10093000C22415308700DB24C22408001E30870043
:10094000DB24C2241E308700DB24C22408001430BC
:100950008700DB24C2241D308700DB24C22408006A
:1009600015308700DB24C22417308700DB24C22423
:10097000080015308700DB24C22410308700DB24F8
:10098000C22408008716DB248712DB2487010800B5
:100990008701860100308700C224DB2401308700F4
:1009A000C224DB2400308700C224DB24023087000D
:1009B000C224DB240800FC3081000B110B1DDE2C4F
:1009C00008000230A3006430A400F930A500000044
:0E09D000A50BE72CA40BE52CA30BE32C0800D1
:02400E00713F00
:00000001FF
